{
  "contractName": "MyContract",
  "abi": [
    {
      "inputs": [
        {
          "internalType": "uint256",
          "name": "",
          "type": "uint256"
        }
      ],
      "name": "adoptedDogs",
      "outputs": [
        {
          "internalType": "address",
          "name": "",
          "type": "address"
        }
      ],
      "stateMutability": "view",
      "type": "function",
      "constant": true
    },
    {
      "inputs": [
        {
          "internalType": "uint256",
          "name": "indexDog",
          "type": "uint256"
        }
      ],
      "name": "adoptionDog",
      "outputs": [
        {
          "internalType": "bool",
          "name": "",
          "type": "bool"
        }
      ],
      "stateMutability": "nonpayable",
      "type": "function"
    },
    {
      "inputs": [],
      "name": "getAdoptedDogs",
      "outputs": [
        {
          "internalType": "address[16]",
          "name": "",
          "type": "address[16]"
        }
      ],
      "stateMutability": "view",
      "type": "function",
      "constant": true
    }
  ],
  "bytecode": "0x608060405234801561001057600080fd5b50610569806100206000396000f3fe608060405234801561001057600080fd5b50600436106100415760003560e01c806303ff73bd14610046578063747faa441461007657806385b2b766146100a6575b600080fd5b610060600480360381019061005b9190610301565b6100c4565b60405161006d919061036f565b60405180910390f35b610090600480360381019061008b9190610301565b6100fa565b60405161009d91906103a5565b60405180910390f35b6100ae610222565b6040516100bb919061046b565b60405180910390f35b600081601081106100d457600080fd5b016000915054906101000a900473ffffffffffffffffffffffffffffffffffffffff1681565b600080821015801561010d5750600f8211155b61014c576040517f08c379a0000000000000000000000000000000000000000000000000000000008152600401610143906104e4565b60405180910390fd5b600060019050600073ffffffffffffffffffffffffffffffffffffffff166000846010811061017e5761017d610504565b5b0160009054906101000a900473ffffffffffffffffffffffffffffffffffffffff1673ffffffffffffffffffffffffffffffffffffffff16036102145733600084601081106101d0576101cf610504565b5b0160006101000a81548173ffffffffffffffffffffffffffffffffffffffff021916908373ffffffffffffffffffffffffffffffffffffffff160217905550610219565b600090505b80915050919050565b61022a6102a3565b6000601080602002604051908101604052809291908260108015610299576020028201915b8160009054906101000a900473ffffffffffffffffffffffffffffffffffffffff1673ffffffffffffffffffffffffffffffffffffffff168152602001906001019080831161024f575b5050505050905090565b604051806102000160405280601090602082028036833780820191505090505090565b600080fd5b6000819050919050565b6102de816102cb565b81146102e957600080fd5b50565b6000813590506102fb816102d5565b92915050565b600060208284031215610317576103166102c6565b5b6000610325848285016102ec565b91505092915050565b600073ffffffffffffffffffffffffffffffffffffffff82169050919050565b60006103598261032e565b9050919050565b6103698161034e565b82525050565b60006020820190506103846000830184610360565b92915050565b60008115159050919050565b61039f8161038a565b82525050565b60006020820190506103ba6000830184610396565b92915050565b600060109050919050565b600081905092915050565b6000819050919050565b6103e98161034e565b82525050565b60006103fb83836103e0565b60208301905092915050565b6000602082019050919050565b61041d816103c0565b61042781846103cb565b9250610432826103d6565b8060005b8381101561046357815161044a87826103ef565b965061045583610407565b925050600181019050610436565b505050505050565b6000610200820190506104816000830184610414565b92915050565b600082825260208201905092915050565b7f6f7574206f662072616e67650000000000000000000000000000000000000000600082015250565b60006104ce600c83610487565b91506104d982610498565b602082019050919050565b600060208201905081810360008301526104fd816104c1565b9050919050565b7f4e487b7100000000000000000000000000000000000000000000000000000000600052603260045260246000fdfea26469706673582212200eb7d5d6674f532a1a1a923a29a8b6f1f9d7b8e985e95d47c9729ac299415cd464736f6c63430008110033",
  "immutableReferences": {},
  "source": "pragma solidity ^0.8.17;\n\ncontract MyContract {\n    address[16] public adoptedDogs;\n\n    function adoptionDog(uint256 indexDog) public returns (bool) {\n        require(indexDog >= 0 && indexDog <= 15, \"out of range\");\n        bool adoptionWithExit = true;\n\n        if (adoptedDogs[indexDog] == address(0)) {\n            adoptedDogs[indexDog] = msg.sender;\n        } else {\n            adoptionWithExit = false;\n        }\n\n        return adoptionWithExit;\n    }\n\n    function getAdoptedDogs() public view returns (address[16] memory) {\n        return adoptedDogs;\n    }\n}\n",
  "sourcePath": "/Users/german.coronel/Documents/SmartContracts/MyFirstSC/contracts/MyContract.sol",
  "compiler": {
    "name": "solc",
    "version": "0.8.17+commit.8df45f5f.Emscripten.clang"
  },
  "schemaVersion": "3.4.10",
  "updatedAt": "2022-09-16T16:10:44.317Z",
  "networkType": "ethereum",
  "devdoc": {
    "kind": "dev",
    "methods": {},
    "version": 1
  },
  "userdoc": {
    "kind": "user",
    "methods": {},
    "version": 1
  }
}